:020000040000FA
:1000000001285330AA005730AB004F30AC00FA3013
:10001000AD00831603130F128F160F1783160313E9
:100020008501860187018514051485150516851639
:1000300007148714061683160313861606178617E9
:100040008316031318139816181298111815831293
:100050000313981718131816831603131B129B11FA
:100060009B1083160313CF30990000309A0083163B
:1000700003138C018D010C168C16831203138B0154
:100080000B178B13831203139F01831203179E0117
:100090009F01831203138501870186014F28061AE9
:1000A0008D209520A520B220C220C030AE00281B94
:1000B0002E14A81BAE14291B2E15A91BAE152E122B
:1000C000AE12051A2E168519AE1687182E160718A9
:1000D000AE16A81728132808AF00A9172913290856
:1000E000B0002E08A200CF202F08A200CF20300899
:1000F000A200CF205330AA005630AB005030AC00E5
:10010000FA30AD00851A8C281030AA001030AB00F0
:100110001030AC00DC30AD004F28061E8D28912039
:1001200008004D30A200CF20080085189528851CB6
:100130009728A401A601A40A0319A12085189B28C9
:100140000800A60A2D08A4000800A80126082B0212
:100150000318AD282B082602A8002C082602031C31
:10016000A80008000518B228051CB428A501A7019D
:10017000A50A0319BE200518B8280800A70A2D08EB
:10018000A5000800A90127082B020318CA282B087C
:100190002702A9002C082702031CA90008008312CB
:1001A00003130C1ED12822089900080083120313A0
:1001B0001A08A3000800A00BDB28A10BDB2808000D
:0401C00000340034D3
:02400E00D430AC
:00000001FF
