:040000008A11202C15
:10074E008312031307150800831203130711080001
:10075E008312031307138711871207120800640010
:10076E008001840A0406031900340406B72B5A3498
:10077E0000345A340034013400340134003483120E
:10078E00031307178711871607120530F2000F3073
:10079E00F100F430F000F00BD22BF10BD22BF20B58
:1007AE00D22B0800831203179E010C309F00831674
:1007BE0003138501303086008030870083120313C7
:1007CE0085018601870101309F000C3083120317CB
:1007DE009F00831603130F168F160F170800F401D0
:1007EE00F501F92B701CFC2BFD2B032C7208F40762
:1007FE000318F50A7308F50701300310F20DF30D17
:10080E00FF3E031D042C01300310F10CF00CFF3ED3
:10081E00031D0B2C71087004031D162C172CF92BBD
:10082E00182C7508F101F1077408F001F0071F2C60
:10083E0008008313203084003E308A11B6238A11BB
:10084E008A11BE238A11CB008A11BF238A11CC00D4
:10085E008A11C0238A11CD008A11C1238A11CE00BC
:10086E008A11C2238A11CF008A11C3238A11D000A4
:10087E008A11C4238A11D1008A11C5238A11D2008C
:10088E0083018A11442D831203134C08803AF00021
:10089E002508803A7002031D562C24084B020318BB
:1008AE00592C5A2C5F2C83120313071387115F2CBC
:1008BE00831203134E08803AF0002508803A700226
:1008CE00031D6B2C24084D0203186E2C6F2C742CF8
:1008DE008312031387120712742C08004030831200
:1008EE0003138606A401A501013051065204031D0F
:1008FE00812C822C852C87160712932C02305106E0
:10090E005204031D8B2C8C2C8F2C87120716932CC4
:10091E0087120712932C932C01304F065004031D9F
:10092E00992C9A2C9D2C07178711AB2C02304F0651
:10093E005004031DA32CA42CA72C07138715AB2C36
:10094E0007138711AB2CAB2C08008312031307136C
:10095E008715871207160430C400CF30C30003304A
:10096E00C200C20BB82CC30BB82CC40BB82CBF2CB6
:10097E008312031307178711871207160830C40056
:10098E009D30C3000B30C200C20BCB2CC30BCB2C43
:10099E00C40BCB2CD22C8A11F2248A11E12C8A1191
:1009AE00F2248A11103083120313C200C20BDD2C05
:1009BE006400E12C831203133708803AFF00803065
:1009CE007F02031DEC2CE0303602031CEF2CF02CC2
:1009DE00D62CF12C08002930831203139F009F148C
:1009EE00F82C9F18FB2CFC2CF82CFD2C1E08FB0061
:1009FE00FC017B08B6007C08B700052D062D6400AF
:100A0E002D30831203139F009F140D2D9F18102D50
:100A1E00112D0D2D122D1E08FB00FC017B08B400BC
:100A2E007C08B5000A30F6000030F7003708F101F7
:100A3E00F1073608F001F0070930F2000030F3003C
:100A4E008A11F6238A117108F901F9077008F80165
:100A5E00F8078A11A0258A11770883120313B701AC
:100A6E00B7077608B601B6073608193EB60037083E
:100A7E000318013E003EB70008008A11D9238A11DF
:100A8E008312031306174B2D871F4E2D4F2D4B2D03
:100A9E0006130130B0000030B1007E2D2508803ADB
:100AAE00FF0080307F02031D5E2D63302402031889
:100ABE00612D622D6B2D013083120313A4070318D1
:100ACE00A50A0030A5077A2D8A11F2248A118A11FF
:100ADE0016268A118A1198268A118A113D278A11A3
:100AEE008A1175248A118A114A248A117E2D0130A9
:100AFE0083120313300631040319862D872D552DCD
:100B0E00882D8A11AF238A1183120313AE01AF0110
:100B1E00B201B3010630CA001330C900B130C800AB
:100B2E00C80B972DC90B972DCA0B972D64008A11F0
:100B3E00002883120313BF01F71FA62DA72DB02D7A
:100B4E00F609F709F60A0319F70ABF010314BF0DD8
:100B5E00B02DF91FB32DB42DBE2DF809F909F80AE1
:100B6E000319F90A0130FA007A08BF06BE2DC0013A
:100B7E00C101770876040319C52DC62D042EBE01BA
:100B8E000314BE0DD62D01300310F60DF70DFF3EEA
:100B9E00031DCB2D0130FA007A08BE07D62DF71FA4
:100BAE00D92DDA2DCA2DDC2DDC2D01300310C00D10
:100BBE00C10DFF3E031DDD2D77087902031DE92DC2
:100BCE0076087802031CEC2DED2DF52D7608F80233
:100BDE007708031CF903F9024014F52D01300310B8
:100BEE00F70CF60CFF3E031DF62D0130BE02031D61
:100BFE00012E022EDC2D042E042E3F08031D082E7E
:100C0E000E2EC009C109C00A0319C10A0E2E4108D1
:100C1E00F701F7074008F601F607152E08008312B4
:100C2E0003133609FB003709FC00FB0A0319FC0A03
:100C3E0034087B07BA0035080318350A7C07BB0059
:100C4E003209FB003309FC00FB0A0319FC0A3A08BF
:100C5E007B07B8003B0803183B0A7C07B90039082C
:100C6E00F101F1073808F001F007BC30F200023054
:100C7E00F3008A11F6238A11710883120313A1015E
:100C8E00A1077008A001A0073B08B301B3073A08FB
:100C9E00B201B2073A08AE070318AF0A3B08AF0716
:100CAE002F08A301A3072E08A201A2073B08F101FA
:100CBE00F1073A08F001F0074630F2000030F30079
:100CCE008A11F6238A11710883120313A701A7074D
:100CDE007008A601A60722082607FB0023080318A2
:100CEE00230A2707FC0020087B07BC0021080318F5
:100CFE00210A7C07BD006430F6000030F7003D0885
:100D0E00F901F9073C08F801F8078A11A0258A11A4
:100D1E00770883120313BD01BD077608BC01BC071B
:100D2E000800831203133D08803AFF0080307F02D3
:100D3E00031DA32E01303C02031CA62EA72EED2E62
:100D4E0083120313071005150130D1000030D200B5
:100D5E006430CD000030CE003D08803AFF00803078
:100D6E007F02031DBC2E65303C02031CBF2EC02E1D
:100D7E00D62E023083120313CF000030D0003C0970
:100D8E00F0003D09F100F00A0319F10A7008643E03
:100D9E00CB0071080318013E003ECC00ED2E013051
:100DAE0083120313CF000030D0003C09F0003D0940
:100DBE00F100F00A0319F10A7008643ECB007108C5
:100DCE000318013E003ECC00ED2EED2E83120313D0
:100DDE00BD1FF22EF32E3C2F07140511BC09BD09C1
:100DEE00BC0A0319BD0A0130CF000030D0006430B8
:100DFE00CB000030CC003D08803AFF0080307F02EF
:100E0E00031D0B2F65303C02031C0E2F0F2F252FB9
:100E1E00023083120313D1000030D2003C09F000DF
:100E2E003D09F100F00A0319F10A7008643ECD0085
:100E3E0071080318013E003ECE003C2F0130831294
:100E4E000313D1000030D2003C09F0003D09F1003F
:100E5E00F00A0319F10A7008643ECD0071080318F8
:100E6E00013E003ECE003C2F3C2F080083120313A0
:100E7E003508803AFF0080307F02031D482FC730AF
:100E8E003402031C4B2F4C2FFA2F831203133708F7
:100E9E00803AFF0080307F02031D572FC730360285
:100EAE00031C5A2F5B2FFA2F013083120313AA074C
:100EBE000318AB0A0030AB072B08803AFF008030D6
:100ECE007F02031D6C2F0B302A02031C6F2F702F15
:100EDE00FF2F83120313AA01AB010130A8070318D9
:100EEE00A90A0030A907013028062904031D802F06
:100EFE00812F882F8A11C6238A118A11A7238A115E
:100F0E00F02F023083120313280629040319902FA1
:100F1E00912FA02F0430280629040319972F982FFC
:100F2E00A02F063028062904031D9E2F9F2FB92FB0
:100F3E00A02F8A11AF238A118A11AB238A11063092
:100F4E0083120313C7001330C600B130C500C50BA2
:100F5E00AE2FC60BAE2FC70BAE2FB52F8A11AC24FA
:100F6E008A11F02F03308312031328062904031964
:100F7E00C12FC22FD12F0530280629040319C82FDF
:100F8E00C92FD12F073028062904031DCF2FD02FAC
:100F9E00EA2FD12F8A11AF238A118A11A7238A1122
:100FAE00063083120313C7001330C600B130C500DC
:100FBE00C50BDF2FC60BDF2FC70BDF2FE62F8A11D6
:100FCE00AC248A11F02F8A11AC248A11F02FF02F45
:100FDE00F02F83120313AE01AF01B201B301B801BA
:100FEE00B901FF2FFF2F83120313AA01AB01FF2FAD
:020FFE000800E9
:02400E00D4F0EC
:00000001FF
