:020000040000FA
:1000000001285330AA005730AB004F30AC00FA3013
:10001000AD00831603130F128F160F1783160313E9
:100020008501860187018514051485150516851639
:1000300007148714061683160313861606178617E9
:100040008316031318139816181298111815831293
:100050000313981718131816831603131B129B11FA
:100060009B1083160313CF30990000309A0083163B
:1000700003138C018D010C168C16831203138B0154
:100080000B178B13831203139F01831203179E0117
:100090009F01831203138501870186014F28061AE9
:1000A0005E20260887001C30A2006620F030A200E7
:1000B00066201C30A200662072204F28061E5E2893
:1000C00062200800AA30A2006620080083120313F1
:1000D0000C1E6828220899000800831203131A08CE
:0E00E000A3000800A00B7228A10B72280800D4
:0200EE000034DC
:0200F0000034DA
:02400E00D430AC
:00000001FF
